S0100000454E4332384A36302E7372656324
S11300000C942A000C9447000C9447000C9447006D
S11300100C9447000C9447000C9447000C94470040
S11300200C9447000C9447000C9447000C94470030
S11300300C9447000C9447000C9447000C94470020
S11300400C9447000C9447000C9447000C94470010
S11300500C94470011241FBECFE5D8E0DEBFCDBF0E
S113006010E0A0E6B0E0EAECFAE002C005900D92E0
S1130070A03BB107D9F722E0A0EBB0E001C01D928C
S1130080AF3EB207E1F70E94E1010C9463050C94C2
S1130090000087B3806B87BBBE98C49A80E58DB996
S11300A0709A08958FB9779BFECF8FB10895EF9220
S11300B0FF920F931F93CF93DF93EC01E62EF72E5D
S11300C0C4988AE30E945200209759F00E2D1F2DE8
S11300D080E00E9452008FB1F80181938F01219733
S11300E0B9F7C49ADF91CF911F910F91FF90EF90D0
S11300F00895CF93C62FC498962F9F71892B0E9481
S1130100520080E00E945200CC231CF480E00E9444
S113011052008FB1C49ACF910895CF93C42FC4983D
S11301206F71862B0E9452008C2F0E945200C49A39
S1130130CF910895CF93C82FC0762C2F30E08091B3
S1130140B20090E02817390779F043E06FE180EAC4
S11301500E948D00C093B2004C2F42954695477083
S11301606FE180E80E948D00CF910895CF93DF93D3
S1130170C82FD62F0E949A004D2F6C2F80E40E9426
S11301808D00DF91CF910895CF93DF93C82FD72FA0
S11301900E94B6006D2F81E08C0F0E94B600DF91A3
S11301A0CF910895CF93DF93EB01682F84ED0E94E4
S11301B0B600BE0186ED0E94C4008AEE0E949A0039
S11301C06AEE80E00E94790080FDF7CFDF91CF9145
S11301D00895CF93DF930E9449004FEF60E08FEFC3
S11301E00E948D008FE39FE10197F1F700C00000AA
S11301F06DE180E00E9479008823D1F360E070E033
S113020088E00E94C40060E070E08CE00E94C400BA
S11302106FEF7BE08AE00E94C40060E07CE084E051
S11302200E94C4006FEF71E186E00E94C40088E37D
S11302300E949A0068E380E00E947900682F616060
S113024088E30E94B6006DE080EC0E94B60060E096
S113025081EC0E94B60042E362EC80E80E948D00CB
S113026062E17CE086EC0E94C40062E184EC0E94BE
S1130270B6006CED75E08AEC0E94C400C0E6D0E0E4
S1130280688184EE0E94B600698185EE0E94B60002
S11302906A8182EE0E94B6006B8183EE0E94B600F2
S11302A06C8180EE0E94B6006D8181EE0E94B600E2
S11302B060E071E080E10E94D20066E774E084E1CE
S11302C00E94D2008FE10E949A0040EC6BE180E82A
S11302D00E948D0044E06FE180E80E948D00DF9170
S11302E0CF910895AF92BF92CF92DF92EF92FF9297
S11302F00F931F93CF93DF9300D000D000D0CDB7DE
S1130300DEB77C015B0189E30E949A0069E380E027
S11303100E947900882309F440C06091B000709174
S1130320B10080E00E94C400BE016F5F7F4F86E091
S113033090E00E945700C980DA80D092B100C09248
S1130340B0008D8187FF0DC00B811C810450110901
S1130350A016B10608F48501B701C8010E94570030
S113036002C000E010E0F701E00FF11F1082B601B7
S11303706150710961158CE0780734F06FEF7BE010
S11303808CE00E94C40003C08CE00E94C40040E4DE
S11303906EE180E80E948D0002C000E010E0C80118
S11303A026960FB6F894DEBF0FBECDBFDF91CF9176
S11303B01F910F91FF90EF90DF90CF90BF90AF907F
S11303C008950E9454020E94E90178940E94450213
S11303D0FDCF0E94E9000895CF93DF936E3071053D
S11303E008F450C0FC0184859585982789279827AF
S11303F09F938F937F936F9385811F928F938481B3
S11304001F928F9383811F928F9382811F928F9368
S113041081811F928F9380811F928F9383851F9276
S11304208F9382851F928F9381851F928F938085EE
S11304301F928F9387811F928F9386811F928F9330
S113044086E690E09F938F93C3EBD0E0DF93CF9346
S11304500E94790209900020E9F72197BE01635BAD
S113046070408DB79EB780960FB6F8949EBF0FBEAE
S11304708DBF83EB90E00E94600262E08CEA90E022
S11304800E946002DF91CF91089505C0BC018FEEF8
S113049090E00E94EC0160E072E08FEE90E00E9438
S11304A07201009799F7089510BC88E089B988E92A
S11304B08AB986E880BD08955D9BFECF8CB9089506
S11304C00F931F93CF93DF93662371F0EC01615078
S11304D0062F10E00F5F1F4F080F191F89910E940C
S11304E05C02C017D107D1F7DF91CF911F910F9113
S11304F00895AEE0B0E0EFE7F2E00C943A050D8920
S11305001E8986E08C831A8309838FEF9FE79E837D
S11305108D83AE01475E5F4F6F89788DCE01019662
S11305200E949B02EF81F885E00FF11F10822E9646
S1130530E4E00C945605ABE0B0E0E1EAF2E00C94A0
S11305402C056C017B018A01FC01178216828381D0
S113055081FFCCC1CE0101963C01F6019381F701E4
S113056093FD859193FF81917F01882309F4BAC19A
S1130570853239F493FD859193FF81917F01853212
S113058029F4B60190E00E949204E7CF912C212C2B
S1130590312CFFE1F315D8F08B3279F038F4803246
S11305A079F08332A1F4232D20611DC08D3261F0D6
S11305B0803369F4232D216016C0832D8260382E88
S11305C0E32DE4603E2E2AC0F32DF8601DC037FCF5
S11305D02DC020ED280F2A3040F08E32B9F436FCBD
S11305E081C1232D2064322E19C036FE06C08AE054
S11305F0989E200D1124922E11C0EAE02E9E200D0B
S11306001124222EF32DF0623F2E08C08C3621F4E3
S1130610832D8068382E02C0883641F4F70193FD9B
S1130620859193FF81917F018111B3CF982F9F7D95
S11306309554933028F40C5F1F4F9FE399830DC0AA
S1130640833631F0833771F0833509F059C021C006
S1130650F801808189830E5F1F4F88248394912C35
S1130660530113C02801F2E04F0E511CF801A08081
S1130670B18036FE03C0692D70E002C06FEF7FEFDA
S1130680C5010E9487044C018201F32DFF773F2EA0
S113069016C0280122E0420E511CF801A080B1804E
S11306A036FE03C0692D70E002C06FEF7FEFC50115
S11306B00E947C044C01F32DF0683F2E820133FC30
S11306C01BC0822D90E088169906B0F4B60180E232
S11306D090E00E9492042A94F4CFF50137FC8591AE
S11306E037FE81915F01B60190E00E9492042110CF
S11306F02A9421E0821A91088114910471F7E8C0C8
S1130700843611F0893641F5F80137FE07C060815F
S11307107181828193810C5F1F4F08C06081718158
S1130720072E000C880B990B0E5F1F4FF32DFF76DD
S11307303F2E97FF09C090958095709561957F4FE6
S11307408F4F9F4FF0683F2E2AE030E0A3010E94B4
S1130750CE04882E861845C0853731F4232D2F7E8C
S1130760B22E2AE030E025C0932D997FB92E8F3622
S1130770C1F018F4883579F0B5C0803719F088379E
S113078021F0B0C0E92FE061BE2EB4FE0DC0FB2DF8
S1130790F460BF2E09C034FE0AC0292F2660B22E91
S11307A006C028E030E005C020E130E002C020E1CE
S11307B032E0F801B7FE07C06081718182819381C4
S11307C00C5F1F4F06C06081718180E090E00E5F76
S11307D01F4FA3010E94CE04882E8618FB2DFF779D
S11307E03F2E36FE0DC0232D2E7FA22E891458F4E1
S11307F034FE0BC032FC09C0832D8E7EA82E05C0AA
S1130800B82CA32C03C0B82C01C0B92CA4FE0FC073
S1130810FE01E80DF11D8081803321F49A2D997E2B
S1130820A92E09C0A2FE06C0B394B39404C08A2DB5
S1130830867809F0B394A3FC11C0A0FE06C0B214DC
S113084088F4280C922C9B180EC0B21460F4B601E4
S113085080E290E00E949204B394F7CFB21418F4AB
S11308602B1802C0982C212CA4FE10C0B60180E3E2
S113087090E00E949204A2FE17C0A1FC03C088E786
S113088090E002C088E590E0B6010CC08A2D86781D
S113089059F0A1FE02C08BE201C080E2A7FC8DE208
S11308A0B60190E00E949204891438F4B60180E302
S11308B090E00E9492049A94F7CF8A94F301E80D91
S11308C0F11D8081B60190E00E9492048110F5CF61
S11308D0222009F442CEB60180E290E00E94920404
S11308E02A94F6CFF6018681978102C08FEF9FEF9D
S11308F02B96E2E10C944805FC0105906150704090
S11309000110D8F7809590958E0F9F1F0895FC01D4
S11309106150704001900110D8F7809590958E0F2A
S11309209F1F08950F931F93CF93DF93FB012381A0
S113093021FD03C08FEF9FEF2CC022FF16C046811C
S11309405781248135814217530744F4A081B18132
S11309509D012F5F3F4F318320838C932681378104
S11309602F5F3F4F3783268314C08B01EC01FB01BB
S11309700084F185E02D0995892BE1F6D8011696BE
S11309808D919C911797019617969C938E93169729
S1130990CE01DF91CF911F910F910895FA01AA27FB
S11309A0283051F1203181F1E8946F936E7F6E5FAE
S11309B07F4F8F4F9F4FAF4FB1E03ED0B4E03CD05C
S11309C0670F781F891F9A1FA11D680F791F8A1F3F
S11309D0911DA11D6A0F711D811D911DA11D20D0A6
S11309E009F468943F912AE0269F11243019305D60
S11309F03193DEF6CF010895462F4770405D419351
S1130A00B3E00FD0C9F7F6CF462F4F70405D4A339D
S1130A1018F0495D31FD4052419302D0A9F7EACF65
S1130A20B4E0A6959795879577956795BA95C9F794
S1130A3000976105710508959B01AC010A2E069487
S1130A405795479537952795BA95C9F7620F731F40
S1130A50841F951FA01D08952F923F924F925F927D
S1130A606F927F928F929F92AF92BF92CF92DF92BA
S1130A70EF92FF920F931F93CF93DF93CDB7DEB71F
S1130A80CA1BDB0B0FB6F894DEBF0FBECDBF0994B3
S1130A902A88398848885F846E847D848C849B840A
S1130AA0AA84B984C884DF80EE80FD800C811B8118
S1130AB0AA81B981CE0FD11D0FB6F894DEBF0FBE47
S10D0AC0CDBFED010895F894FFCFB7
S1130ACA001337012345253032583A253032583A33
S1130ADA253032583A253032583A253032583A2598
S1130AEA3032582D253032583A253032583A25308A
S1130AFA32583A253032583A253032583A2530326B
S1130B0A583B2025643B2025303458000D0A000048
S9030000FC
